{
  "_format": "hh-sol-artifact-1",
  "contractName": "Token",
  "sourceName": "contracts/Token.sol",
  "abi": [
    {
      "inputs": [
        {
          "internalType": "uint256",
          "name": "_totalSupply",
          "type": "uint256"
        }
      ],
      "stateMutability": "nonpayable",
      "type": "constructor"
    },
    {
      "inputs": [],
      "name": "NAME",
      "outputs": [
        {
          "internalType": "string",
          "name": "",
          "type": "string"
        }
      ],
      "stateMutability": "view",
      "type": "function"
    },
    {
      "inputs": [
        {
          "internalType": "address",
          "name": "_address",
          "type": "address"
        }
      ],
      "name": "balanceOf",
      "outputs": [
        {
          "internalType": "uint256",
          "name": "result",
          "type": "uint256"
        }
      ],
      "stateMutability": "view",
      "type": "function"
    },
    {
      "inputs": [],
      "name": "getTotalSupply",
      "outputs": [
        {
          "internalType": "uint256",
          "name": "_totalSupply",
          "type": "uint256"
        }
      ],
      "stateMutability": "view",
      "type": "function"
    },
    {
      "inputs": [
        {
          "internalType": "uint256",
          "name": "_amount",
          "type": "uint256"
        },
        {
          "internalType": "address",
          "name": "_to",
          "type": "address"
        }
      ],
      "name": "transfer",
      "outputs": [],
      "stateMutability": "nonpayable",
      "type": "function"
    }
  ],
  "bytecode": "0x608060405234801561001057600080fd5b506040516107d13803806107d183398181016040528101906100329190610133565b336000806101000a81548173ffffffffffffffffffffffffffffffffffffffff021916908373ffffffffffffffffffffffffffffffffffffffff16021790555080600181905550600154600260008060009054906101000a900473ffffffffffffffffffffffffffffffffffffffff1673ffffffffffffffffffffffffffffffffffffffff1673ffffffffffffffffffffffffffffffffffffffff16815260200190815260200160002060008282546100eb919061018f565b92505081905550506101e5565b600080fd5b6000819050919050565b610110816100fd565b811461011b57600080fd5b50565b60008151905061012d81610107565b92915050565b600060208284031215610149576101486100f8565b5b60006101578482850161011e565b91505092915050565b7f4e487b7100000000000000000000000000000000000000000000000000000000600052601160045260246000fd5b600061019a826100fd565b91506101a5836100fd565b9250827fffffffffffffffffffffffffffffffffffffffffffffffffffffffffffffffff038211156101da576101d9610160565b5b828201905092915050565b6105dd806101f46000396000f3fe608060405234801561001057600080fd5b506004361061004c5760003560e01c806370a0823114610051578063a3f4df7e14610081578063b7760c8f1461009f578063c4e41b22146100bb575b600080fd5b61006b600480360381019061006691906102fa565b6100d9565b6040516100789190610340565b60405180910390f35b610089610122565b60405161009691906103f4565b60405180910390f35b6100b960048036038101906100b49190610442565b61015b565b005b6100c361028d565b6040516100d09190610340565b60405180910390f35b6000600260008373ffffffffffffffffffffffffffffffffffffffff1673ffffffffffffffffffffffffffffffffffffffff168152602001908152602001600020549050919050565b6040518060400160405280600781526020017f4d79546f6b656e0000000000000000000000000000000000000000000000000081525081565b81600260003373ffffffffffffffffffffffffffffffffffffffff1673ffffffffffffffffffffffffffffffffffffffff1681526020019081526020016000205410156101dd576040517f08c379a00000000000000000000000000000000000000000000000000000000081526004016101d4906104ce565b60405180910390fd5b81600260003373ffffffffffffffffffffffffffffffffffffffff1673ffffffffffffffffffffffffffffffffffffffff168152602001908152602001600020600082825461022c919061051d565b9250508190555081600260008373ffffffffffffffffffffffffffffffffffffffff1673ffffffffffffffffffffffffffffffffffffffff16815260200190815260200160002060008282546102829190610551565b925050819055505050565b6000600154905090565b600080fd5b600073ffffffffffffffffffffffffffffffffffffffff82169050919050565b60006102c78261029c565b9050919050565b6102d7816102bc565b81146102e257600080fd5b50565b6000813590506102f4816102ce565b92915050565b6000602082840312156103105761030f610297565b5b600061031e848285016102e5565b91505092915050565b6000819050919050565b61033a81610327565b82525050565b60006020820190506103556000830184610331565b92915050565b600081519050919050565b600082825260208201905092915050565b60005b8381101561039557808201518184015260208101905061037a565b838111156103a4576000848401525b50505050565b6000601f19601f8301169050919050565b60006103c68261035b565b6103d08185610366565b93506103e0818560208601610377565b6103e9816103aa565b840191505092915050565b6000602082019050818103600083015261040e81846103bb565b905092915050565b61041f81610327565b811461042a57600080fd5b50565b60008135905061043c81610416565b92915050565b6000806040838503121561045957610458610297565b5b60006104678582860161042d565b9250506020610478858286016102e5565b9150509250929050565b7f4e6f7420656e6f7567682066756e647300000000000000000000000000000000600082015250565b60006104b8601083610366565b91506104c382610482565b602082019050919050565b600060208201905081810360008301526104e7816104ab565b9050919050565b7f4e487b7100000000000000000000000000000000000000000000000000000000600052601160045260246000fd5b600061052882610327565b915061053383610327565b925082821015610546576105456104ee565b5b828203905092915050565b600061055c82610327565b915061056783610327565b9250827fffffffffffffffffffffffffffffffffffffffffffffffffffffffffffffffff0382111561059c5761059b6104ee565b5b82820190509291505056fea2646970667358221220800ab606a369427c7dd7be8c2d333ec211caad3c7771734a775b72f7d4348be564736f6c63430008080033",
  "linkReferences": {},
  "deployedLinkReferences": {}
}